:100000000C942A000C9434000C9434000C943400AA
:100010000C9434000C9434000C9434000C94340090
:100020000C9434000C9434000C9434000C94340080
:100030000C9434000C9457000C9434000C9434004D
:100040000C9434000C9434000C9434000C94340060
:100050000C94340011241FBECFE5D8E0DEBFCDBF25
:100060000E9436000C94BB000C9400000E944300D8
:1000700060E875E280E090E00E9461000E949500D7
:100080000E945300FFCF87B3806187BB87B3806234
:1000900087BB87B38F7B87BB87B3806887BB8DB1F6
:1000A00080658DB908958FB9779BFECF08951F9213
:1000B0000F920FB60F9211240F900FBE0F901F904A
:1000C00018952FB720682FBFDC01CB01880F991F2F
:1000D000AA1FBB1F880F991FAA1FBB1F9C01AD0140
:1000E000220F331F441F551F220F331F441F551F5C
:1000F00060E074E284EF90E00E94990021503109A1
:1001000029B930BD8BB18D7F8BB98BB18E7F8BB907
:100110001AB88AB188608AB98AB180618AB98AB10D
:1001200080688AB986E880BD08955F9BFECF8CB158
:100130000895A1E21A2EAA1BBB1BFD010DC0AA1F28
:10014000BB1FEE1FFF1FA217B307E407F50720F040
:10015000A21BB30BE40BF50B661F771F881F991FBB
:100160001A9469F760957095809590959B01AC0104
:0A017000BD01CF010895F894FFCF00
:00000001FF
