S00A000067702E7372656343
S11300000C9432000C943C000C943C000C943C0086
S11300100C943C000C943C000C943C000C943C006C
S11300200C943C000C943C000C943C000C943C005C
S11300300C943C000C9431010C943C000C943C0056
S11300400C943C000C943C000C943C000C943C003C
S11300500C943C000101040107010A010D01100187
S11300601301160111241FBECFE5D8E0DEBFCDBFBA
S11300700E94F3000C9441010C940000442319F0F5
S11300804130C9F10895813091F028F08230D9F0DF
S1130090833029F108952BB381E090E002C0880FEA
S11300A0991F6A95E2F7809582238BBB089528B344
S11300B081E090E002C0880F991F6A95E2F780956D
S11300C0822388BB089525B381E090E002C0880FA5
S11300D0991F6A95E2F78095822385BB089522B320
S11300E081E090E002C0880F991F6A95E2F780953D
S11300F0822382BB0895813089F028F08230C9F0D0
S1130100833011F108952BB381E090E002C0880F91
S1130110991F6A95E2F7822B8BBB089528B381E07F
S113012090E002C0880F991F6A95E2F7822B88BB82
S1130130089525B381E090E002C0880F991F6A9565
S1130140E2F7822B85BB089522B381E090E002C0E0
S1130150880F991F6A95E2F7822B82BB089541E0CC
S113016060E080E00E943E00089540E060E080E0AE
S11301700E943E00089541E061E080E00E943E005C
S1130180089540E061E080E00E943E00089541E06F
S113019062E080E00E943E00089540E062E080E07A
S11301A00E943E00089541E060E080E00E943E002D
S11301B041E061E080E00E943E0041E062E080E0D6
S11301C00E943E00089540E060E080E00E943E000E
S11301D040E061E080E00E943E0040E062E080E0B8
S11301E00E943E0008950E9419010E942D0190E092
S11301F0FC01F197E830F105C0F7E65DFF4F0C9480
S11302003B010E94AF00F1CF0E94B500EECF0E94E7
S1130210BB00EBCF0E94C100E8CF0E94C700E5CF2E
S11302200E94CD00E2CF0E94D300DFCF0E94E30002
S1130230DCCF87B38F7E87BB87B38F7D87BB87B3C4
S1130240806487BB87B38F7787BB1DB88DB180640B
S11302508DB98FB780688FBF0895779BFECF8FB11C
S113026008951F920F920FB60F9211240F900FBE94
S11302700F901F901895EE0FFF1F0590F491E02D3D
S10902800994F894FFCF7D
S9030000FC
