S0180000534D4152545F484F4D455F534C4156452E7372656323
S11300000C9432000C943C000C943C000C943C0086
S11300100C943C000C943C000C943C000C943C006C
S11300200C943C000C943C000C943C000C943C005C
S11300300C947A010C94D6010C943C000C943C0072
S11300400C943C000C943C000C943C000C943C003C
S11300500C943C0097019A019D01A001A301A60103
S1130060A901AC0111241FBECFE5D8E0DEBFCDBF8E
S11300700E9475010C94E6010C940000442319F0CD
S11300804130C9F10895813091F028F08230D9F0DF
S1130090833029F108952AB381E090E002C0880FEB
S11300A0991F6A95E2F7809582238ABB089527B346
S11300B081E090E002C0880F991F6A95E2F780956D
S11300C0822387BB089524B381E090E002C0880FA7
S11300D0991F6A95E2F78095822384BB089521B322
S11300E081E090E002C0880F991F6A95E2F780953D
S11300F0822381BB0895813089F028F08230C9F0D1
S1130100833011F108952AB381E090E002C0880F92
S1130110991F6A95E2F7822B8ABB089527B381E081
S113012090E002C0880F991F6A95E2F7822B87BB83
S1130130089524B381E090E002C0880F991F6A9566
S1130140E2F7822B84BB089521B381E090E002C0E2
S1130150880F991F6A95E2F78095822381BB0895E1
S1130160442319F04130C9F10895813091F028F009
S11301708230D9F0833029F108952BB381E090E0E7
S113018002C0880F991F6A95E2F7809582238BBB82
S1130190089528B381E090E002C0880F991F6A9502
S11301A0E2F78095822388BB089525B381E090E02F
S11301B002C0880F991F6A95E2F78095822385BB58
S11301C0089522B381E090E002C0880F991F6A95D8
S11301D0E2F78095822382BB0895813089F028F06C
S11301E08230C9F0833011F108952BB381E090E09F
S11301F002C0880F991F6A95E2F7822B8BBB089582
S113020028B381E090E002C0880F991F6A95E2F755
S1130210822B88BB089525B381E090E002C0880F4B
S1130220991F6A95E2F7822B85BB089522B381E07A
S113023090E002C0880F991F6A95E2F7822B82BB77
S1130240089541E060E080E00E943E0041E061E00A
S113025080E00E943E0041E062E080E00E943E00B7
S1130260089541E060E080E00E94B000089540E01D
S113027060E080E00E94B000089541E061E080E029
S11302800E94B000089540E061E080E00E94B00068
S1130290089541E062E080E00E94B000089540E0EB
S11302A062E080E00E94B000089541E060E080E0F8
S11302B00E94B00041E061E080E00E94B00041E0B3
S11302C062E080E00E94B000089540E060E080E0D9
S11302D00E94B00040E061E080E00E94B00040E095
S11302E062E080E00E94B00008950E9421010E9413
S11302F0BF01FFCF1F920F920FB60F9211242F93BD
S11303003F934F935F936F937F938F939F93AF9399
S1130310BF93EF93FF93EFB18E2F90E0FC01F19721
S1130320E830F105D8F4E65DFF4F0C94E0010E943B
S1130330310114C00E94370111C00E943D010EC05A
S11303400E9443010BC00E94490108C00E944F0152
S113035005C00E94550102C00E946501FF91EF9102
S1130360BF91AF919F918F917F916F915F914F91C9
S11303703F912F910F900FBE0F901F90189587B348
S11303808F7E87BB87B38F7D87BB87B3806487BB32
S113039087B38F7787BB1DB88DB180688DB98FB750
S11303A080688FBF8DB180648DB908951F920F92BC
S11303B00FB60F9211240F900FBE0F901F90189537
S11303C0EE0FFF1F0590F491E02D0994F894FFCFF0
S9030000FC
